:020000040800F2
:10000000D80800209D010008F33100088B2A000861
:10001000F1310008090D0008DF3D00080000000074
:10002000000000000000000000000000ED360008A5
:10003000C90D00080000000071360008F136000804
:10004000B7010008B7010008B7010008B7010008B0
:10005000B7010008B7010008B7010008B7010008A0
:10006000B7010008B7010008B70100080D0D00082E
:10007000B7010008B7010008B7010008B701000880
:10008000B7010008B7010008B7010008B701000870
:10009000B7010008B7010008B7010008B701000860
:1000A000B7010008B7010008B7010008B701000850
:1000B000B7010008B7010008B7010008B701000840
:1000C000B7010008B7010008B7010008B701000830
:1000D000B7010008B7010008B7010008B701000820
:1000E000B7010008B7010008B7010008B701000810
:1000F000B7010008B7010008B7010008190D000892
:10010000B7010008B7010008B7010008B7010008EF
:10011000B7010008813A0008B7010008B7010008DC
:10012000B7010008B7010008B7010008B7010008CF
:10013000B7010008B7010008B7010008B7010008BF
:10014000B7010008B7010008B7010008B7010008AF
:10015000B7010008B7010008B7010008B70100089F
:10016000B7010008B7010008B7010008B70100088F
:10017000B7010008B7010008B7010008000000003F
:10018000B7010008B7010008DFF80CD000F0B4FB9D
:100190000048004705410008D8080020064880476D
:1001A00006480047FEE7FEE7FEE7FEE7FEE7FEE75C
:1001B000FEE7FEE7FEE7FEE7913700088901000849
:1001C0002DE9F05F0546002092469B46884606468C
:1001D000814640241BE0284641464746224600F01F
:1001E0006EFA53465A46C01A914110D3114618462A
:1001F000224600F055FA2D1A67EB01084F462246B9
:100200000120002100F04CFA17EB00094E41201E9E
:10021000A4F10104DFDC484631462A464346BDE8E6
:10022000F09F40EA01039B0703D009E008C9121FB1
:1002300008C0042AFAD203E011F8013B00F8013BA0
:10024000521EF9D27047D2B201E000F8012B491ECC
:10025000FBD270470022F6E710B513460A46044663
:100260001946FFF7F0FF204610BDCAB2401E10F835
:10027000011F8A4202D00029F9D1002070470000F6
:1002800070B50F4D00B92868002412E00A4602E05C
:100290009E4203D0521C1378002BF9D1DAB22243CC
:1002A00005D02BB124B1002100F8011B04E0044665
:1002B000401C0678002EE9D12860204670BD000061
:1002C000100100202DE9FE4F804681EA0300C00F97
:1002D0000C46009021F0004123F00045B8EB0200ED
:1002E000A94105D24046214690461C460B4602468F
:1002F00023F00040104347D0270DC7F30A00C3F393
:100300000A510290401A019040286BDAC3F313009F
:1003100040F4801B0098924620B10023D2EB030AE0
:1003200063EB0B0B01985946C0F14002504600F0B8
:10033000B7F906460D4650465946019A00F0CFF9E6
:1003400010EB08006141002487EA115284EAE77348
:100350001A4340D0009A62B3019A012A4FEA075229
:1003600015DC001B61EB02014FF0004202EA07526C
:10037000CDE90042001C41F5801132462B4600F0C9
:1003800055FA03B0BDE8F08F40462146F9E7001B5F
:1003900061EB0201001C41F5801300185B4120183D
:1003A000A2F5001747EB030140EAD570B6196D417D
:1003B00011E06D084FEA360645EAC0754FEA07526C
:1003C000001B61EB0201001C41F5801149084FEA56
:1003D00030000019514132462B4603B0BDE8F04FC2
:1003E00000F015BA0098012240000023D0EB020271
:1003F00063EBE073009821464FEAE074B8EB00002D
:1004000061EB0401E9E783F000435BE781F0004121
:1004100058E72DE9FE4F81EA030404F0004421F07F
:10042000004100944FF0000B23F0004350EA010418
:100430005ED052EA03045BD0C3F30A54C1F30A55F9
:100440002C44A4F2F3340194A0FB0254C1F3130131
:1004500041F48011C3F3130343F4801301FB0244FE
:1004600000FB034E840A970A44EA815447EA835703
:10047000A4FB076802958D0A05FB07854FEA932CBC
:1004800004FB0C542705029D4FEA065847EA16372D
:10049000B5EB08056EEB070C870E920E47EA811745
:1004A00042EA8312A7FB0201B6EB0B0164EB0004E6
:1004B0002B0D43EA0C335E1844EB1C50DA465146D0
:1004C000E7FB0201C5F313044FEA0B3343EA14536D
:1004D0004FEA0432019C43EA0603A4F10C0402949F
:1004E000009CCDE900B400F0A1F903B0BDE8F08FA5
:1004F00000200146F9E72DE9F04D81EA030404F0FC
:10050000004B21F0004514464FF0000A23F0004153
:1005100050EA050220D054EA01021DD0C5F30A5763
:100520000246C5F31303C1F31300C1F30A5640F4A6
:10053000801543F48013A7EB0608101BD64608F27B
:10054000FD3873EB050002D308F1010801E09218B1
:100550005B41B8F1000F03DA00200146BDE8F08DE1
:1005600000204FF48011064684460EE0171B73EB03
:10057000050705D3121B63EB050306434CEA010C88
:1005800049084FEA300092185B4150EA0107EDD16B
:1005900052EA030012D082EA040083EA050108430C
:1005A00005D0101BAB4106D20122002306E0002239
:1005B0004FF0004302E06FF0010253101AEB060007
:1005C0004CEB085110EB0A0041EB0B01BDE8F04D7C
:1005D00000F01DB90EB5C10F80EAE0700844CA07EB
:1005E000002140F233438DE80E000A460B4600F02E
:1005F0001DF903B000BD0EB540F233410291002158
:10060000CDE900110A460B4600F010F903B000BD19
:10061000C1F30A5210B5C1F3130140F2FF3341F4A4
:1006200080119A4201DA002010BD40F233439A4211
:10063000A2F2334203DC524200F041F810BD904078
:1006400010BD00F0004230F000400AD0C10D01F5AD
:100650006071C0F3160042EA0151C208400711431D
:10066000704700200146704701F0004330B421F08C
:10067000004150EA010206D00A0DA2F56072C1F3F2
:100680001301002A02DC30BC00207047440F44EA0A
:10069000C104C100E01830BC00EBC25000F080B8CB
:1006A000202A04DB203A00FA02F100207047914032
:1006B000C2F1200320FA03F3194390407047202A27
:1006C00004DB203A21FA02F00021704721FA02F3FC
:1006D000D040C2F120029140084319467047202AB9
:1006E00006DBCB17203A41FA02F043EAE07306E05A
:1006F00041FA02F3D040C2F120029140084319466A
:10070000704700000FB4002300B589B00CA9009118
:100710000B996FF00042CB601E4B06931E4B079364
:100720000423CDE901321D4A089202466B4600209F
:1007300000F08EF909B05DF814FB70B586B006467E
:100740004FF0FF300091CDE90101002015460C4625
:1007500004903246694604A8FFF7D4FF0246049885
:10076000211825B108B1084600E020462860049809
:1007700000280DD0002A02DD0098884208D0081B0E
:100780000094CDE901043246694604A8FFF7BAFF98
:1007900006B070BD890C0008A70C00081D090008F0
:1007A0000029A8BF7047401C490008BF20F0010085
:1007B000704710B4B0FA80FC00FA0CF050EA010463
:1007C00004BF10BC704749B1CCF1200421FA04F4F5
:1007D00011FA0CF118BF012121430843A3EB0C01CE
:1007E000CB1D4FEA00614FEA102042BF002010BC31
:1007F000704700EBC35010440029A4BF10BC7047E1
:10080000401C490008BF20F0010010BC704710B523
:10081000141E73F1000408DA401C41F10001921823
:100820005B411A4301D120F0010010BD2DE9F04DCC
:1008300092469B4611B1B1FA81F202E0B0FA80F221
:1008400020329046FFF72CFF04460F4640EA0A008C
:1008500041EA0B0153465A46084313D0114653EA66
:10086000010019D0C8F140025046FFF728FF0546A5
:100870000E46504659464246FFF712FF084305D040
:10088000012004E020463946BDE8F08D00200543F4
:1008900046EAE0762C4337430A986305E40AA0EB66
:1008A00008000022FD0A44EA47540A3002D500201D
:1008B0000146E9E7010510196941DDE9084500191C
:1008C0006941BDE8F04DA2E730B5041E71F10004A6
:1008D00004DB4FF00044404264EB0101141E73F14D
:1008E000000405DB1C464FF00043524263EB040357
:1008F000994208BF904230BD064C074D06E0E068C3
:1009000040F0010394E8070098471034AC42F6D356
:10091000FFF73EFC6447000884470008C0B24FF46C
:10092000F05100F0D1B900002DE9FF4F087883B0F5
:100930009946FF2805D0491C2D2804D0002400200A
:1009400008E000200BE00124F9E700EB800003EB56
:100950004000491C0B78FF2BF7D104B14042002323
:100960000293147819461D462D2C01D02B2C04D14E
:10097000521C2D2C13D000240294AA461478FF2C6C
:100980000FD00A25A3FB057801FB05814FF0000C71
:1009900003FB0C11521CE3194AEB0101EEE70124A1
:1009A000EAE7814453EA010002D019F5C87F06DA6C
:1009B00003980021C0E9001107B0BDE8F08F0025C1
:1009C000AE4E2F46DFF8B882184600F091F9CDE917
:1009D0000001B9F1000002DAC9F1000400E00446A8
:1009E0000023A74A1AEB030B42EB045A12E0E0077C
:1009F00007D02A46334638464146FFF70AFD0746E8
:100A000088462A46334610461946FFF702FD05463A
:100A10000E466410002CEAD1DDE90001B9F1000FA7
:100A20005A46534606DAFFF766FD3A464346FFF755
:100A300062FD05E0FFF7EDFC3A464346FFF7E9FCAF
:100A4000029A0AB181F00041039AC2E90001B3E7BA
:100A50002DE9FF4F1F468DB0D7E901464FF0FF3813
:100A60002E2045464FF000090B90B9696D1C0E9879
:100A70008847396A824688470028F6D1BAF1FF3F95
:100A80000AD024F4D064002E11DDBAF12B0F08D067
:100A9000BAF12D0F0BD102E0404611B08DE744F4BE
:100AA0008064B9696D1C0E9888478246761E694637
:100AB000600501D52D2000E02B208DF8000001F10C
:100AC000010B0DF1200809E0B9696D1C0E988847EB
:100AD00082460F9844F40074761E0560002E02DDF5
:100AE000BAF1300FF0D00B998A453ED144F0800422
:100AF00006E00F99681CA9F1010944F4007408602C
:100B0000B9696D1C761E0E98884782463028F0D051
:100B10002BE00B998A4505D1200603D444F08004CC
:100B2000761E18E0504603F01AFA08B30DF11301CF
:100B3000761E44F400748B4508D2AAF130000BF8FD
:100B4000010B200607D5A9F1010003E0200602D41D
:100B500009F101008146A00502D50F99681C0860C3
:100B6000B9696D1C0E9888478246002ED1DC53E08F
:100B7000002E51DDBAF1650F02D0BAF1450F4BD10D
:100B8000A00549D5B9696D1C24F44074761E0E98F1
:100B900088478246002E0CDD2B2804D0BAF12D0F99
:100BA00007D144F48074B9696D1C0E988847824659
:100BB000761EE00501D52D2100E02B2108F8011B50
:100BC000CDF82C8021E00DF12901761E44F400744B
:100BD00088450CD2AAF1300010F0FF0088F8000020
:100BE00002D10B99884509D908F1010806E0E00512
:100BF00001D5244801E042F20F708146B9696D1CAD
:100C00000E98884782460F980560002E04DD5046F6
:100C100003F0A5F90028D6D1F9690E988847FF207E
:100C20008BF8000088F800000020069007904B46E3
:100C30006A4608A906A8FFF777FEA00502D46FF060
:100C400001002AE714F0240F0AD0E00714D1DDE9EF
:100C500006123868031D3B600068C0E900120BE013
:100C6000DDE90601FFF700FD0146E00704D1386821
:100C7000021D3A600068016028460EE7000014403B
:100C80000000F03FF1D8FFFF426842B1016811F85F
:100C9000013B23B1521EC0E90012184670470121E2
:100CA000C160881E704742685AB1C368016843B981
:100CB00083688B4205D0491E521CC0E900120020F7
:100CC00070474FF0FF3070477F2801D9002208E0BD
:100CD000064A02EB5002C007127800D1120902F056
:100CE0000F02012090400840704700002447000890
:100CF0000EB540F2334202920022CDE900221346A3
:100D0000FFF794FD03B000BDFEE70000014800F0CE
:100D1000B7B8000014040020014800F0B1B800008A
:100D20007404002001681823CAB2103AB2FBF3F22F
:100D3000054B6FF30901032A9B5CC36500D9091DAC
:100D400081650846704700000447000810B5014659
:100D500000208B698A6A4FF0C07453B1B3F5005F0D
:100D600015D072B1012A0CD0022A0AD0032A09D167
:100D700004E01AB1012A06D0022A03D1C96AC901C6
:100D800000D5012010BDC96AA142FAD010BD002AC9
:100D9000F7D0012AF2D0022AF3D0032AF3D010BDF3
:100DA00030B50468256825F48025256004686360F3
:100DB0008368402B036803D099600068C26030BD2F
:100DC0009A600068C16030BD704770472DE9F041FE
:100DD0000446876D00F0BAFA064694F835000025FF
:100DE000022806D08020606584F834500120BDE8D8
:100DF000F0812068016821F01601016020684169D6
:100E000021F080014161206C08B9A06C20B12068FC
:100E1000016821F0080101602068016821F00101EA
:100E200001600BE000F092FA801B052806D9202013
:100E3000606504F8345F03206070D8E720680068BC
:100E4000C007EFD194F85C103F208840B86004F8E8
:100E5000345F012060700020C9E790F83510022946
:100E600003D08021416501207047052180F83510AD
:100E70000068016821F00101016000207047000056
:100E80002DE9F84304464FF00009CDF8009063487F
:100E90004FF41651A56D0068B0FBF1F72E6894F879
:100EA0005C10082000FA01F131420FD021680A6875
:100EB00052070BD50A6822F004020A6094F85C100D
:100EC0008840A860606D40F00100606594F85C1097
:100ED0004FF0010808FA01F0304208D02168496952
:100EE000090604D5A860606D40F00200606594F8C2
:100EF0005C1004208840304208D0216809688907C6
:100F000004D5A860606D40F00400606594F85C1042
:100F100010208840304218D021680968090714D58C
:100F2000A86020680168490304D50068000308D55B
:100F3000A16C07E00168C90503D4016821F008012C
:100F40000160216C09B12046884794F85C1020208C
:100F50008840304231D021680968C9062DD5A86083
:100F600094F8350005282068016806D0490347D564
:100F7000006800031DD4616C1CE021F016010160C3
:100F80002068416921F080014161206C08B9A06CA2
:100F900020B12068016821F00801016094F85C101C
:100FA0003F208840A86084F8349084F83580216D13
:100FB0001FE0E16B09B120468847606D00282BD007
:100FC000606DC00714D0052084F8350020680168E2
:100FD00021F0010101600098401C0090B84203D844
:100FE00020680068C007F6D184F8349084F8358012
:100FF000E16C002910D001B02046BDE8F04308475D
:101000000168C905D5D4016821F01001016084F898
:10101000349084F83580CCE7BDE8F88308010020DF
:101020002DE9F041044600F091F906465CB1002537
:1010300084F83450022084F835002068016821F0DB
:10104000010101600DE00120BDE8F08100F07EF9B2
:10105000801B052805D920206065032084F8350011
:10106000F2E720680068C007F0D1226811682048C4
:101070000140D4E901031843D4E90336334318434C
:1010800063691843A3691843E3691843236A184343
:101090000843616A042903D1D4E90B1319430843B7
:1010A000106020684069666A20F0070130460E43F0
:1010B000012704280CD1A06A0643E06A40B120460B
:1010C000FFF744FE20B14020606584F83570BAE730
:1010D000206846612046FFF725FE94F85C203F21FA
:1010E00091408160656584F835700020ACE70000B0
:1010F0003F8010F02DE9F0410446866D90F83400F1
:10110000002501280DD0012084F8340094F83570B2
:101110000020012F07D084F8340002252846BDE8BE
:10112000F0810220FBE7022784F8357060652046D5
:10113000FFF736FE94F85C103F208840B0602068CE
:10114000016841F016010160206C20B1206801683F
:1011500041F0080101602068016841F0010101606F
:10116000DCE7000070B5044600F0F0F80546601CAE
:1011700002D004480078044400F0E8F8401BA04284
:10118000FAD370BDFC0000202DE9F84F00224FF08B
:10119000010803254FF00F0E0B6808FA02F42340F4
:1011A000A3426ED14E68012E05D0022E03D0112E1F
:1011B00001D0122E12D186684FEA420C05FA0CF7C4
:1011C000BE43CF6807FA0CF7374387604668A643EB
:1011D0000C79C4F30014944034434460C66857004B
:1011E00005FA07FC8C6826EA0C06BC403443C46050
:1011F0004C68022C01D0122C13D1D40800EB8404CB
:10120000A346D4F8209054074FEAD46A0EFA0AF69F
:1012100029EA06090E6906FA0AF646EA0906CBF833
:10122000206006680C7926EA0C0604F00304BC4032
:10123000344304604C68E40065D5364C266846F4B7
:1012400080462660246822F0030604F4804400945B
:10125000314C3444A446D4F808489607370F0EFAA8
:1012600007F6B4432D4EB04201D1002624E02C4EA7
:10127000B04201D101261FE02A4EB04202D102261F
:101280001AE040E0284EB04201D1032614E0274E78
:10129000B04201D104260FE0254EB04201D105260F
:1012A0000AE0244EB04201D1062605E0224EB042AB
:1012B00001D1072600E00826BE402643CCF8086886
:1012C0001E4E34684F689C43FF0300D51C433460B6
:1012D0001A4C241D26684F689E43BF0300D51E4349
:1012E0002660164E083634684F689C43FF0200D5CE
:1012F0001C433460114E0C3634684F689C43BF0267
:1013000000D51C433460521C102AFFF445AFBDE8E1
:10131000F88F0000443802400030014000000240D5
:101320000004024000080240000C0240001002408D
:101330000014024000180240001C0240003C014022
:101340000AB1816170470904FBE700000148806829
:1013500070470000FC00002070B5040025D094F810
:101360003D00002520B984F83C50204600F0E2FA08
:10137000242084F83D002068016821F0010101600B
:101380002068016841F4004101602068016821F48F
:101390000041016000F036FC4D4A6168914201D87D
:1013A0004C4900E04C49884201D2012070BD4B49B4
:1013B0002368B0FBF1F15E6826F03F060E435E60E5
:1013C0006368934206D94FF4967359434FF47A7386
:1013D000B1FBF3F12368491C1E6A26F03F06314336
:1013E00019626168914210D84900401EB0FBF1F2C9
:1013F000521CC2F30B02042A01D2042022E0B0FBEB
:10140000F1F0401CC0F30B001CE0A268F2B301EB4A
:10141000C10303EB0116431EB3FBF6F35B1C43F45D
:1014200080431B0549D092B301EBC10202EB0111CD
:10143000401EB0FBF1F0401CC0F30B0040F48040B4
:1014400040F400402168CA694CF6FF739A43104388
:10145000C861D4E9071001432068026822F0C00285
:1014600011430160D4E9030101432068826848F216
:10147000FF339A4311438160D4E905010843216891
:10148000CA6822F0FF021043C86001E00EE016E0D7
:101490002068016841F0010101602564202084F882
:1014A0003D00256384F83E50002070BD01EB4106ED
:1014B000431EB3FBF6F35B1CB3E70120C2E701EB6D
:1014C0004101401EB0FBF1F0401CC0F30B00B7E738
:1014D000A086010080841E0000093D0040420F00EC
:1014E0002DE9F84F1F4690468A460446DDF82890BD
:1014F000FFF72CFF054694F83D0020287FD11923E3
:10150000012240492046009501F01EFC002876D1BA
:1015100094F83C00012872D0012084F83C00206837
:101520000168C90703D1016841F001010160206829
:10153000016821F400610160212084F83D00102041
:1015400084F83E0000262664C4F824806785608DF8
:1015500020852D48E0622B464A465146204601F040
:10156000ADFA90B9206841698069009036E02A465A
:101570004946204601F09AFC50B1206C042804D161
:101580002068016841F4007101600120BDE8F88F16
:10159000606A216800780861606A401C6062618D41
:1015A000491E6185218D491E89B2218522685369B2
:1015B000DB435B070BD451B100781061606A401CBB
:1015C0006062608D401E6085208D401E20852A4609
:1015D0004946204601F092FB0028CED1208D0028FC
:1015E000C5D154F83D0B016841F400710160202021
:1015F00004F81E09E67766770020C7E7FFE70220B8
:10160000C4E70000020010000000FFFF2DE9FF4FBB
:1016100083B09A46DDE9119793460446DDF8408091
:10162000FFF794FE054694F83D00202870D1192359
:10163000012271492046009501F086FB0028F5D172
:1016400094F83C00012863D0012084F83C00206815
:101650000168C90703D1016841F0010101602068F8
:10166000016821F400610160222084F83D004020DF
:1016700084F83E0000262664C4F82480A4F82A904A
:10168000608D20855D48E062CDE9007553465A467D
:101690002046049901F060FA00287CD1208DD0B159
:1016A000012821D00228206824D041698069009057
:1016B000208D032869D801282BD0514902283B46A8
:1016C0004FF00002009559D08846204601F03CFBBF
:1016D000002860D13CE0206841698169009101687F
:1016E00041F40071016077E02068016821F48061B5
:1016F0000160F0E7016821F4806101602068016801
:1017000041F400610160206841698069009063E0F4
:101710006FE02A463946204601F095FB98BB2068C9
:101720000069616A08704EE02068016841F4007148
:10173000016020680069616A0870606A401C60622C
:10174000218D491E2185618D491E6185216838E002
:101750002068016821F48061016020680069616A85
:101760000870606A401C6062208D401E2085608D7C
:10177000401E60853B46002241460095204601F010
:10178000E3FA00B9D0E706E0FFE72A4639462046EB
:1017900001F059FB18B1012007B0BDE8F08F2068B7
:1017A0000069616A0870606A401C6062218D491E90
:1017B0002185618D491E618521684A69D24352079E
:1017C0000AD409690170606A401C6062208D401E65
:1017D0002085608D401E6085208D00287FF468AFD5
:1017E000202084F83D0084F83E6084F83C600020AE
:1017F000D2E70220D0E70000020010000000FFFF47
:10180000040001002DE9FF4F83B09A46DDE91197EE
:1018100093460446DDF84080FFF798FD054694F8AE
:101820003D0020287FD11923012240492046009500
:1018300001F08AFA002876D194F83C00012872D091
:10184000012084F83C0020680168C90703D10168C1
:1018500041F0010101602068016821F4006101602C
:10186000212084F83D00402084F83E0000262664B4
:10187000C4F82480A4F82A90608D20852C48E0626A
:10188000CDE9007553465A462046049901F0E2F925
:1018900070B930E02A463946204601F007FB58B1BE
:1018A000206C042804D12068016841F400710160B3
:1018B000012007B0BDE8F08F606A216800780861F8
:1018C000606A401C6062218D491E89B22185628D4B
:1018D000521E628522685369DB435B070BD469B1F2
:1018E00000781061606A401C6062208D401E208577
:1018F000608D401E6085208D0028CBD12A46394658
:10190000204601F0FBF90028CAD154F83D0B0168CC
:1019100041F400710160202004F81E09E677667723
:101920000020C6E7FFE70220C3E700000200100026
:101930000000FFFF10B586B0044614216846FEF78C
:1019400089FC13492068884220D11248016841F07F
:10195000020101600068694600F002000590C020A5
:101960000090122001900120029003200390042097
:1019700004900948FFF708FC06481030016841F45C
:1019800000110160006800F40010059006B010BD61
:101990000054004030380240000402400248816890
:1019A0000278114481607047FC0000200B4810B59C
:1019B000016841F400710160016841F480610160D7
:1019C000016841F480710160032000F06FF800208D
:1019D00000F006F800F024F8002010BD003C0240A2
:1019E00070B50D4D04464FF47A712878B1FBF0F0D4
:1019F0000A490968B1FBF0F000F002FB48B9102C6D
:101A000007D200222146501E00F030F800206C6002
:101A100070BD012070BD0000FC0000200801002006
:101A20000A4808B5016841F480410160006800F48B
:101A3000804000900548001F016841F0805101601E
:101A4000006800F08050009008BD0000443802405B
:101A5000002809DB00F01F020121914040098000AD
:101A600000F1E020C0F8001170470000F0B40E4B08
:101A70001B680C46C3F30223C3F10705042D00D9EC
:101A80000425191D072901D2002300E0DB1E0126D1
:101A900006FA05F1491E214099409E40761E1640E7
:101AA0003143F0BC02F09CB90CED00E0064900F0B7
:101AB000070208684FF6FF03184040EA0220034A75
:101AC00010430860704700000CED00E00000FA05CC
:101AD0002DE9F0470E46050065D0DFF81481D8F8EF
:101AE0000000F7B200F00F00B04207D288F8007093
:101AF000D8F8000000F00F00B04254D128683D4CE7
:101B0000810712D5400703D5206840F4E0502060DB
:101B10002878000703D5206840F4604020602068E2
:101B2000A96820F0F000084320602878C0072DD075
:101B3000304968680839012812D0022813D00328D8
:101B400011D00968890700292DDA216821F00301E5
:101B500001432160FFF7FAFB814641F2883A0EE02B
:101B600009688903EFE709688901ECE7FFF7EEFBF5
:101B7000A0EB0901514502D90320BDE8F087206898
:101B8000696800F00C00B0EB810FEFD1D8F80010BD
:101B9000404601F00F01B14207D90770006800F01C
:101BA0000F00B04201D00120E7E72878400705D5B3
:101BB0002068E96820F4E050084320602878000796
:101BC00006D52068296920F4604040EAC100206001
:101BD00000F038F82168084AC1F30311515CC8408D
:101BE0000649086006480068FFF7FAFE0020C4E7CF
:101BF000003C0240083802400C4700080801002061
:101C0000000100200448054900680968044AC1F33E
:101C10008221515CC840704708010020083802400A
:101C20001C4700080448054900680968044AC1F3D4
:101C30004231515CC840704708010020083802401A
:101C40001C470008154810B5006810F00C02144835
:101C500013D04110042A0FD0082A0ED10F4C241F94
:101C60002268236802F03F025B0207D52068C0F3B8
:101C70008810A0FB010106E0084610BD2168C1F3F1
:101C80008811A1FB00010023FEF79AFA2168C1F335
:101C90000141491C4900B0FBF1F010BD0838024079
:101CA0000024F4002DE9F84F04006ED02078DFF80E
:101CB0003C93C007A9F104054AD009F1040001686A
:101CC000C1F38101012908D00068C0F38100022816
:101CD0000AD1D9F80000400206D52868800337D51C
:101CE00060680028E1D033E06068B0F5803F10D034
:101CF000B0F5A02F286810D020F480302860286824
:101D000020F4802028606068A8B1FFF71FFB06461A
:101D10000DE0286840F48030F4E740F4802028602B
:101D2000F7E700BFFFF712FB801B642873D8286811
:101D30008003F7D50CE0FFF709FB064605E000BF7E
:101D4000FFF704FB801B6428F0D828688003F7D4D1
:101D50002078DFF89C8280074FF0000A3ED5A34828
:101D6000001D016811F00C0F08D00068C0F381005D
:101D700002280BD1D9F80000400207D42868800758
:101D800016D5E068012800D112E02BE1E068B8B177
:101D90000120C8F80000FFF7D9FA064605E000BFA9
:101DA000FFF7D4FA801B0228C0D828688007F7D52F
:101DB0002868216920F0F80040EAC10028600DE0A1
:101DC000C8F800A0FFF7C2FA064604E0FFF7BEFA23
:101DD000801B02281FD828688007F7D420780007C6
:101DE00022D5824E83486169703671B1012101604C
:101DF000FFF7ACFA074604E0FFF7A8FAC01B022879
:101E000009D830688007F7D50EE0C0F800A0FFF7CA
:101E10009DFA074605E082E0FFF798FAC01B02280A
:101E20007DD830688007F7D42078400768D5DFF880
:101E3000BCB100270BF13C0BDBF80000C0000BD459
:101E4000DBF8001041F08051CBF80010DBF8000007
:101E5000012700F080500090674E3068C00510D414
:101E6000306840F480703060FFF770FA009005E051
:101E7000FFF76CFA0099401A022850D83068C00564
:101E8000F6D55A4EA0686C3601280FD00528306868
:101E900010D020F001003060306820F00400306085
:101EA000A068B8B1FFF752FA00900FE0306840F038
:101EB0000100F4E740F004003060F7E7FFF746FA6E
:101EC0000099411A41F28830814266D83068800713
:101ED000F4D50EE0FFF73AFA009007E0FFF736FA84
:101EE0000099411A41F28830814256D83068800703
:101EF000F4D42FB1DBF8001021F08051CBF80010A2
:101F0000A069C8B33949091D0968C1F381010229D3
:101F10004AD00228504607D0C8F8600000E03CE0F4
:101F2000FFF714FA04463BE04746C8F86000FFF7A5
:101F30000DFA064605E000BFFFF708FA801B0228ED
:101F40002BD828688001F7D4D4E907010843A16A97
:101F50002A4A490802EB0141626A41EA82110843B8
:101F600094F82C1040EA0161C9F80010012038668D
:101F7000FFF7ECF9044606E036E000BFFFF7E6F9AC
:101F8000001B022809D828688001F7D52CE000BF83
:101F9000FFF7DCF9001B022802D90320BDE8F88F07
:101FA00028688001F4D41FE00128F7D0D9F8000098
:101FB000E26900F48001914214D1226A00F03F01ED
:101FC00091420FD147F6C071626A0140914209D136
:101FD000A26A00F44031914204D1E16A00F07060DD
:101FE000884201D00120D9E70020D7E70438024019
:101FF00000004742800E4742007000400000FFFF93
:1020000010B5401EB0F1807F01D3012010BD4FF00C
:10201000E02460610F21601701F0E2FE0020A06162
:1020200007202061002010BD70B590F83C20012AE7
:1020300032D0012480F83C40022280F83D20036821
:102040005A689D6822F070060A6832435A60134B42
:1020500002689A4214D0B2F1804F11D0104B9A42CC
:102060000ED0104B9A420BD00F4B9A4208D00F4B18
:102070009A4205D00E4B9A4202D00E4B9A4204D19E
:10208000496825F080031943916080F83D400021A4
:1020900080F83C10084670BD022070BD0000014071
:1020A0000004004000080040000C00400004014013
:1020B000004001400018004010B5040003D094F81F
:1020C0003D0010B107E0012010BD002084F83C0065
:1020D000204600F00DF8022084F83D00211D206804
:1020E00001F064FB012084F83D00002010BD0000D9
:1020F00008B50068B0F1804F08D10548016841F08B
:1021000001010160006800F00100009008BD0000BE
:102110004038024070B5044690F83C00012817D0C2
:10212000012584F83C50022084F83D002068826834
:1021300022F0770222F47F4282600868502830D073
:102140000DDC20284DD005DC98B310283BD148E0A9
:10215000022070BD302844D0402834D139E06028B6
:1021600028D0702806D0B0F5805F2CD0B0F5005F85
:1021700029D10AE0CB68D1E90121206801F087FB71
:102180002068816841F0770109E0CB68D1E901213D
:10219000206801F07CFB2068816841F48041816007
:1021A00011E0CA684968206801F046FC50212068A7
:1021B00007E016E0CA684968206801F04EFC60211B
:1021C000206801F06EFB84F83D50002084F83C004C
:1021D00070BDCA684968206801F02EFC4021206863
:1021E000EFE7226801461046EBE72DE9F0410D4686
:1021F000040003D094F83D0018B108E00120BDE8C8
:10220000F081002084F83C00204600F03BF80220DA
:1022100084F83D002068816844F2070291438160A0
:10222000211D206801F0C2FA226890689169166A3F
:102230002B68AF69034340F20330814341EA072131
:10224000A868EF6908434FF6FC418843E96840EA13
:102250000720014328692F6A000140EA073008433C
:1022600069686D6926F0AA0646EA05152943936058
:102270002268906120680162012084F83D000020FE
:10228000BDE70000F0B587B0044614216846FDF7AD
:10229000E1FF3A4826680023394902220125864297
:1022A0001AD137481430046844F00104046000680F
:1022B00000F001000590086840F010000860086810
:1022C000694600F0100005904FF420608DE825006D
:1022D000CDE903352B4819E0294C2B4F10342B48FE
:1022E000BE4217D1266846F002062660246804F034
:1022F000020405940C6844F001040C60096801F0C4
:1023000001010591C0218DE8260033E0FEF73CFF76
:1023100007B0F0BD1E4FBE4216D1206840F0040049
:102320002060206800F004000590086840F0080074
:1023300008600868694600F0080005904FF44050B6
:102340008DE82500134816E0134DAE42E0D1256814
:1023500045F008052560246804F0080405940C681D
:1023600044F001040C60096801F0010105910321AA
:102370008DE80E006946CDE90332C7E70000014051
:1023800030380240001002400004004000000240CB
:1023900000080040000C0240000C004010B504464C
:1023A000006891B1042904D00122002101F062FAF1
:1023B000206801225FF0040101F05CFA20680168E6
:1023C00041F001010160002010BD01220021F3E76E
:1023D00070B586B0044614216846FDF73BFF2068BF
:1023E000B0F1804F25D114480025016841F001016A
:1023F0000160016801F001010591016841F00201ED
:1024000001600068022400F0020005902C208DE895
:1024100031000126CDE9034669460848FEF7B4FEBF
:1024200008208DE83100CDE9034669460448FEF7EF
:10243000ABFE06B070BD0000303802400000024024
:102440000004024070B5044690F83C000D46012897
:102450000DD0012684F83C60022084F83D0042B192
:10246000042A18D0082A2AD00C2A4DD139E002209B
:1024700070BD206801F01EFA2068816941F00801F2
:1024800081612068816921F004018161206881698E
:102490002A69114311E0206801F03CFA2068816943
:1024A00041F4006181612068816921F4806181616A
:1024B000206881692A6941EA0221816124E020685B
:1024C00001F05EFA2068C16941F00801C16120682D
:1024D000C16921F00401C1612068C1692A69114301
:1024E00011E0206801F080FA2068C16941F40061C0
:1024F000C1612068C16921F48061C1612068C1693E
:102500002A6941EA0221C16184F83D60002084F813
:102510003C0070BD10B5040003D094F83D0010B12C
:1025200007E0012010BD002084F83C00204600F0A8
:102530000CF8022084F83D00211D206801F036F9D6
:10254000012084F83D00002010BD704710B50446FE
:102550000068012201F08EF90B492068884202D000
:102560000A49884203D1416C41F40041416420682A
:10257000816801F00701062903D0016841F00101DB
:102580000160002010BD0000000001400004014077
:1025900008B590F83810012907D0012180F83810CB
:1025A00090F83910212902D006E0022008BD016808
:1025B0004A6942F080024A6190F83A1000222229CA
:1025C00011D101680B684B680093CB6843F48073AA
:1025D000CB6001684B6943F001034B6101684B69B3
:1025E00043F040034B6180F83820002008BD10B54F
:1025F00004460068416994F83920C1F3C011212ACA
:102600000BD151B1416921F080014161206B08B1CA
:10261000FEF7DCFB204601F097FA2068416994F848
:102620003A20C1F38011222A0BD151B1416921F026
:1026300040014161606B08B1FEF7C8FB204601F024
:1026400075FA002010BD704770B502680446106826
:10265000D168536910F00F0F52D003F0010501F457
:1026600090762E435FD0C20705D0CA0503D5E26B32
:1026700042F00102E263420705D5DA0703D0E26BBC
:1026800042F00202E263820705D5DA0703D0E26B6B
:1026900042F00402E263020707D501F020022A4358
:1026A00003D0E26B42F00802E263E26B002A33D00F
:1026B000800604D5880602D5204601F04EFA20682F
:1026C0004069E16BC0F38010090700D428B32046AD
:1026D00001F02CFA2068416949061AD5416921F0B8
:1026E00040014161606BA0B11B490165606BFEF761
:1026F000B4FB002810D0606B016DBDE87040084746
:10270000830610D58B060ED52046BDE8704001F03B
:1027100024BA2046FFF797FF70BD2046FFF793FFCE
:102720000020E06370BD030606D50B0604D52046E5
:10273000BDE8704001F0F0BA4006F3D54806F1D587
:10274000D168204621F04001D160202184F8391061
:1027500000F09AF970BD00008D3A000870B50400D1
:1027600004D094F83900002510B106E0012070BDB6
:1027700084F83850204600F023F8242084F83900EB
:102780002068C16821F40051C160204601F030FA90
:102790002068016921F4904101612068416921F0BC
:1027A0002A0141612068C16841F40051C160E563BC
:1027B000202084F8390084F83A00002070BD000021
:1027C0002DE9F04387B0064614216846FDF742FD27
:1027D00037493068884267D136480025016841F49E
:1027E00080110160006800F48010059031481038B5
:1027F000016841F004010160016801F004010591E4
:10280000016841F0080101600068022400F008003E
:1028100005904FF4805001274FF003084FF008094E
:102820008DE8910369462448FEF7AEFC04208DE84C
:10283000910369462148FEF7A7FC224C20484FF43B
:102840008068C7052060C4E90175C4E90358656163
:102850004FF40039A561C4E9075920466562FEF7C7
:10286000DFFB08B1FEF7B1FA7463A6631448164C97
:10287000A830E4E802074020A4E82101124844F807
:102880001459A561C4E907596562FEF7C9FB08B18F
:10289000FEF79BFA3463002211463520A663FFF74A
:1028A000E5F83520FFF7D4F807B0BDE8F083000065
:1028B000005000404038024000080240000C024036
:1028C000106002401404002074040020F8B504468F
:1028D00090F83A0020283CD1C1B3BAB394F838003C
:1028E000012836D0012084F83800A162A285002595
:1028F000E563222084F83A00636B1748D863636B62
:1029000016481864636B1648D864606B13460565F7
:102910000846666B216802463046091DFEF7EAFB51
:10292000206801684168009184F83850C16841F41A
:102930008071C1602068416941F0010141612068F6
:10294000416941F0400141610020F8BDFFE70120ED
:10295000FBE70220F9E70000E73A0008233B000804
:102960009D3A000810B51748FFF741FE154C53215A
:1029700040342046FDF779FCA0B145212046FDF703
:1029800074FC78B14FF4007303220FA10D4800F0DE
:102990001EF8002004F11D0114F8012B0A54401CFC
:1029A0001D28F9DB07481D214030FDF753FC054881
:1029B000FFF7EEFD03491D22BDE8104040310148FC
:1029C000FFF784BFA80200206F6B000070472DE95D
:1029D000F843044690F839001F4616460D46202855
:1029E00050D1B5B1AEB194F8380001284AD00120D9
:1029F00084F838004FF00008C4F83C80212084F8A7
:102A00003900FEF7A3FCA6848146E68484F838806A
:102A100026E00120BDE8F883E08C401EE084A06839
:102A20004B46B0F5805F4FF000024FF0800120462A
:102A3000009703D001F0A1F9E8B90DE001F09DF98C
:102A4000C8B928882168C0F308004860206908B127
:102A50006D1C05E0AD1C03E0216815F8010B486012
:102A6000E08C0028D8D14B46002240212046009718
:102A700001F083F908B10320CCE7202084F8390065
:102A80000020C7E70220C5E77047FEE701684A69F2
:102A9000D24352050FD46FF480624A61002140F89E
:102AA000301F202242738173026942F004020261E6
:102AB000017301207047002070470000F8B50446FC
:102AC000C06A1E460D461746082807D0012805D0C3
:102AD00010F5803F02D0206B122804D120680168D5
:102AE00041F480710160134600224FF0011120462D
:102AF000009600F029F940B120680068C00502D5B1
:102B00004FF4007020640320F8BD2069B0F5804FB9
:102B10000ED00620216800EAD51040F0F0000861D0
:102B200033463A460B49204600F042F978B902E0B4
:102B300005F0FE0000E0E8B221680861054933466F
:102B40003A46891F204600F033F90028DCD00120E6
:102B5000F8BD0000080001002DE9F84F04460068A8
:102B600089460B9D01689846174641F480610160D3
:102B70002068016841F48071016000954FF0011BED
:102B80000022594620460A9B00F0DEF84FF4007AF6
:102B900040B120680068C00501D5C4F840A00320FA
:102BA000BDE8F88F216809F0FE0008612B4628492E
:102BB00020460A9A00F0FCF8F0BB20684169806961
:102BC00000902A4620460A9900F070F940B1206C26
:102BD00004283AD12068016841F40071016034E0B2
:102BE000FEB2B8F1010F09D02168380A08612A46FF
:102BF00020460A9900F05AF90028E8D120680661B9
:102C00002A4620460A9900F051F90028DFD12068B1
:102C1000016841F480710160009500225946204608
:102C20000A9B00F091F80028B3D1216809F0FF0059
:102C300040F00100086100E007E02B46044920460F
:102C40000A9A00F0B5F80028AAD00120A8E70000F1
:102C5000020001002DE9F843044600680D46DDE955
:102C6000089701689846164641F4807101604B460A
:102C700000224FF001112046009700F065F848B19E
:102C800020680068C00502D54FF40070206403205E
:102C9000BDE8F883216805F0FE0008613B464A461E
:102CA0001549204600F084F888B920684169806998
:102CB00000903A464946204600F0F8F848B1206CAA
:102CC000042804D12068016841F4007101600120EA
:102CD000DEE7F5B2B8F1010F09D02168300A0861CA
:102CE0003A464946204600F0E1F80028E7D120683E
:102CF00005610020CCE700000200010070B5164617
:102D00000D4604460DE02046FFF7C0FE08B1012045
:102D100070BD681C05D0FEF719FB801BA84207D8C0
:102D200035B120684069C0434007ECD4002070BD35
:102D3000002044F8300F20216173A073216941F015
:102D4000200121612073E2E72DE9F0471E469046FD
:102D50000D460446C1F30747DDF8209008E0701CDB
:102D600006D0FEF7F3FAA0EB0900B0420FD876B117
:102D70002068012F18D0806925EA00000004000CAB
:102D800014D000214145EAD00020BDE8F0870020A2
:102D900044F8300F20216173A073216941F02001B4
:102DA000216120730120F0E74069E5E70121E9E7AF
:102DB0002DE9F0479A4691460E46044600254FF00D
:102DC0002008C1F3074725E020684069C04340055B
:102DD00014D42068016841F40071016021686FF427
:102DE00080604861256384F83D8084F83E50206C03
:102DF00040F00400206484F83C501FE0B9F1FF3F2C
:102E000008D0FEF7A3FAA0EB0A0149450CD8B9F1A6
:102E1000000F09D02068012F13D0806926EA000036
:102E20000004000C0BD0CFE744F8305F84F80D802D
:102E3000A573206940F02000206125730120BDE8C2
:102E4000F0874069EAE72DE9F041002590460E46FB
:102E50000446202717E04069C043C0060CD454F84C
:102E6000301B6FF01000486144F810596777A57760
:102E7000206A2062257717E0FEF768FAA0EB0800C9
:102E8000B04208D83EB120684169C9434906E2D43E
:102E90000020BDE8F08144F8305F6773A5732069B6
:102EA00040F02000206125730120F2E770B516463E
:102EB0000D4604460DE02046FFF7E8FD08B101206D
:102EC00070BD681C05D0FEF741FA801BA84207D8E8
:102ED00035B120684069C0430006ECD4002070BDC5
:102EE000002044F8300F20216173A073216941F064
:102EF000200121612073E2E72DE9F04387B014211E
:102F00006846FDF7A7F932480024016841F0040142
:102F10000160016801F004010591016841F0800140
:102F20000160016801F080010591016841F0010133
:102F30000160016801F001010591016841F0100193
:102F40000160016801F010010591016841F008017C
:102F50000160016801F008010591016841F002017A
:102F600001600068DFF86C8000F002004FF42A5521
:102F70000590002229464046FEF7E2F90122960319
:102F800031464046FEF7DCF9DFF84C90770000222E
:102F900039464846FEF7D4F900950125CDE901549C
:102FA000694640460394FEF7EFF8CDE90065CDE9A8
:102FB000025469464046FEF7E7F80097CDE9015410
:102FC000694648460394FEF7DFF807B0BDE8F08392
:102FD00030380240000802400000024010B58CB0BA
:102FE00024216846FDF736F9002413480994114955
:102FF0000A94C0E900144FF6FF71C0E90241046170
:103000004461846103200221CDE900010120CDE962
:103010000204CDE90604CDE904010890694606489A
:10302000FFF7E3F8099409A903480A94FEF7FCFFA7
:103030000CB010BD000001406801002010B58EB03A
:1030400000240794089409940A940B941C21684660
:103050000C94FDF7FFF81D484FF08041C0E90014C3
:1030600040F60F61C0E9024104618461FFF724F872
:103070004FF48050079007A91448FFF74BF8134806
:10308000FFF748FA0B940BA910480C94FEF7CCFFFD
:103090006020CDE900040294002269460B480494A4
:1030A000FFF7D0F9042269460848FFF7CBF9082258
:1030B00069460648FFF7C6F90C2269460348FFF740
:1030C000C1F90248FFF784F90EB010BDA801002035
:1030D00010B58CB024216846FDF7BCF800241348D5
:1030E000099411490A94C0E900144FF6FF71C0E930
:1030F00002410461846103200221CDE90001012025
:10310000CDE90204CDE90604CDE904010890694641
:103110000648FFF76AF8099409A904480A94FEF7DB
:1031200083FF0CB010BD000000040040E801002047
:1031300010B58CB024216846FDF78CF800241348A4
:10314000099411490A94C0E900144FF6FF71C0E9CF
:1031500002410461846103200221CDE900010120C4
:10316000CDE90204CDE90604CDE9040108906946E1
:103170000648FFF73AF8099409A904480A94FEF7AB
:1031800053FF0CB010BD00000008004028020020D2
:1031900010B58CB024216846FDF75CF80024134874
:1031A000099411490A94C0E900144FF6FF71C0E96F
:1031B00002410461846103200221CDE90001012064
:1031C000CDE90204CDE90604CDE904010890694681
:1031D0000648FFF70AF8099409A904480A94FEF77B
:1031E00023FF0CB010BD0000000C0040680200205E
:1031F000FEE7704702460521002000F017B80000E6
:10320000064910B5086000F039F9302000F086F862
:103210000120FFF7EFFF002010BD00000C0100208F
:1032200002460721002000F001B800002DE9FF4709
:1032300015000E46824600D0012501240DF10C092F
:103240000A274846DFF850808DE891002346524611
:103250008021D8F80000FEF7D9F9C8B904FA06F0C1
:1032600040F080019DF80C00CDF80090884305F0F7
:103270000101B14001438DF80C10CDE90147012354
:1032800052468021D8F80000FEF7BCFA002800D092
:10329000012004B0BDE8F0870C01002030B41346D3
:1032A0004FF48054621EA14200D311466BB139B174
:1032B00091420FD0A1F6FF7149428AB2002101E08C
:1032C0000022214630BC00F007B89142F8D009B185
:1032D0000A46F3E72246F1E71FB506238DF80C10E6
:1032E000090A8DF80D108DF80E20110A03EB8000ED
:1032F0008DF80F100A23042203A98DE80E00C0B236
:1033000002460548012380210068FEF77BFA002869
:1033100000D0012004B010BD0C0100201FB540F208
:10332000F651884201D303202DE0182801D8FF2050
:1033300029E0FDF760F99FED211B53EC112BFDF700
:1033400068F841EC100B53EC102B9FED1E0B51EC69
:10335000100BFDF7D0F89FED1D1B53EC112BFDF763
:1033600052F8FDF781F9FDF76CF99FED1A1B53EC4C
:10337000112BFCF7A7FF41EC100B00F041FD51ECC5
:10338000100BFDF745F98DF80C00012000F070F8E6
:1033900001210A2203A88DE8070010480B46FE22EF
:1033A00080210068FEF72EFA002000F061F801206D
:1033B000FFF736FF04B0002010BD00000000000041
:1033C0000000B0400000000084D7774100000000FA
:1033D0000000F03F000000000000E03F0C01002072
:1033E00010B5B5EEC00A0446F1EE10FA174802D245
:1033F0009FED170A05E010EE101A814201DD9FEDE6
:10340000150A10EE100AFDF71CF99FED131B53EC83
:10341000112BFCF7FEFF9FED121B53EC112BFDF758
:103420006AF89FED111B53EC112BFCF74BFFFDF7D6
:103430001BF900EE100A0022BCEEC00A10EE100AC2
:1034400081B22046BDE81040FFF728BF000034439A
:1034500000000000000034430000000000A078409D
:103460000000000000806640000000000080524024
:10347000024604210020FFF7D9BE00001CB506203B
:103480008DF804000A2000900548012301AA0021BC
:103490000068FEF725F8002800D001201CBD0000C0
:1034A0000C01002090F83910B9B190ED0D0A90EDA3
:1034B000001AD0ED070A70EE411A90ED090A00EEED
:1034C000A10A80ED090AD0ED0B0AB4EEE00AF1EE94
:1034D00010FA04D2B0EE600A0AE00020704790EDC6
:1034E0000C2AB4EEC20AF1EE10FA01DDB0EE420A87
:1034F00080ED090AD0ED062A90ED012A02EEA10A1C
:1035000031EE422AD0ED081A01EEC20A80ED020A1D
:10351000B4EEE00AF1EE10FA06D3D0ED0C0AB4EEE8
:10352000E00AF1EE10FA01DDB0EE600A80ED020A69
:1035300080ED011A0120704700B5B0EE404A9FEDC2
:10354000190A80F8382080F8391080ED090AF5EE64
:10355000C01AB0EE413AF0EE603A80ED000A80ED1C
:10356000010AF1EE10FA80ED020A034680ED0D0A21
:1035700002DDC3ED0A1A03E0B7EE000A83ED0A0A82
:10358000F0EE620AB0EE420A00F00EF8B0EE431A16
:10359000F0EE630AB0EE440A18465DF804EB00F062
:1035A00037B8000000000000B4EEE00AF1EE10FAB7
:1035B0002DDA80ED0B0AC0ED0C0A90F839100129C4
:1035C00025D190ED021AB4EEC01AF1EE10FA02D233
:1035D000B0EE401A06E0B4EEE01AF1EE10FA01DDAA
:1035E000B0EE601A80ED021A90ED091AB4EEC01A1E
:1035F000F1EE10FA09D3B4EEE01AF1EE10FA02DDA2
:10360000B0EE600A01E0B0EE410A80ED090A7047B1
:10361000B5EEC00AF1EE10FA29D3F5EEC00AF1EECC
:1036200010FA24D3B5EEC01AF1EE10FA1FD300F150
:103630000C0181EC030A80ED060AD0ED0A1A81EE36
:10364000212A61EEA00AC0ED070A80ED082A90F851
:10365000381001290BD1B1EE400A80ED060AB1EE17
:10366000600A80ED070AB1EE420A80ED080A704751
:103670007047000070B5160004464FF0B4024FF0DA
:10368000000002D0042E02D002E00A2200E01E2038
:10369000944201DD144602E0844200DA0446052E1D
:1036A00003D16000032290FBF2F48C420D460CDA49
:1036B00019E000BF00EE105A3046B8EEC00AFFF71E
:1036C0008FFE0720FDF74EFD6D1CA542F2DD70BD9B
:1036D00000EE105A3046B8EEC00AFFF781FE072010
:1036E000FDF740FD6D1EA542F2DA70BD7047000087
:1036F00006490868401C0522B0FBF2F3086002FB93
:10370000130008B901204860FEF748B9F400002012
:1037100030B593B030216846FCF79CFD14210CA80D
:10372000FCF798FD18480025016841F080510160C0
:10373000006800F0805011901448016841F4804105
:1037400001600068022400F4804011900120009084
:10375000000401908001CDE90640082008909020E7
:10376000CDE9090404200B906846FEF79BFA0CA9EA
:103770000F2081E83100E0020F90109002210CA888
:10378000FEF7A6F913B030BD40380240007000408B
:103790000548016841F47001016003494FF0006081
:1037A000803908607047000088ED00E0F0B50268DD
:1037B000254C264D264E274F274B4FF0804CA042DC
:1037C00009D0604507D0A84205D0B04203D0B84226
:1037D00001D0984204D122F0700E4A6842EA0E02EB
:1037E000A0421BD0604519D0A84217D0B04215D0D6
:1037F000B84213D0984211D0184DA8420ED0184D9F
:10380000A8420BD0174DA84208D0174DA84205D0AA
:10381000164DA84202D0164DA84203D122F440759D
:10382000CA682A434D6922F080022A4302608A68EE
:10383000C2620A688262A04201D0984201D109693D
:10384000016301214161F0BD00000140000400401E
:1038500000080040000C004000040140004001400E
:10386000004401400048014000180040001C004096
:103870000020004010B501F01F030121046A9940A7
:103880008C430462016A9A401143016210BD10B575
:10389000846842EA032224F47F440A43224382607C
:1038A00010BD826822F070020A4342F00701816075
:1038B00070470000F0B5026A22F001020262036A5A
:1038C00042688469124E24F073050C682C4323F07F
:1038D00002058B682B430D4DA84201D0B04205D1A3
:1038E00023F00807CB683B4323F00403A84201D030
:1038F000B04205D14D6922F4407215438A692A43CA
:1039000042608461496841630362F0BD0000014088
:1039100000040140F0B5026A22F010020262026A5D
:10392000436884690D6824F4E64444EA05248D68FC
:1039300022F0200242EA05120F4D104EA84201D09B
:10394000B04206D1CF6822F0800242EA071222F08C
:103950004002A84201D0B04207D14D6923F4406330
:1039600043EA85038D6943EA8503436084614968BE
:1039700081630262F0BD00000000014000040140CC
:10398000F0B5026A22F480720262026A4368C46976
:1039900022F4007224F073050C68124E2C438D68DB
:1039A00042EA05220E4DA84201D0B04206D1CF68AE
:1039B00022F4006242EA072222F48062A84201D087
:1039C000B04207D14D6923F4405343EA05138D6992
:1039D00043EA05134360C4614968C1630262F0BDF4
:1039E000000001400004014030B5026A22F4805218
:1039F0000262046A4268C3690D6823F4E64343EA3D
:103A000005238D6824F4005444EA0534084DA84287
:103A100002D0084DA84204D14D6922F4804242EA06
:103A200085124260C36149680164046230BD0000D0
:103A3000000001400004014010B5036A046A24F04C
:103A400001040462846924F0F00444EA021423F0BF
:103A50000A020A438461026210BD10B5036A23F0B2
:103A6000100303628369046A23F4704343EA023259
:103A700024F0A00343EA01118261016210BD00003D
:103A80000148FEF7E1BD0000A802002010B5806BE0
:103A90000021C185C184FEF7D6FD10BD70B5846BD1
:103AA0002068406994F83910C0F3C010002521291E
:103AB00004D118B1E584204600F046F8206840693A
:103AC00094F83A10C0F38010222904D118B1E5858A
:103AD000204600F02BF8E06B40F01000E063204639
:103AE000FEF7B1FD70BD10B50146806B096809682D
:103AF000C90513D40021C1850168CA6822F4807207
:103B0000CA6001684A6922F001024A6101684A6993
:103B100022F040024A61202180F83A10FEF722FF8D
:103B200010BD10B5806BFEF751FF10BD0168CA686B
:103B300022F49072CA6001684A6922F001024A6167
:103B4000202180F83A1070470168CA6822F0C0024C
:103B5000CA60202180F83910704710B590F83A10EB
:103B6000222901D0022010BD8168B1F5805F11D0FB
:103B70000169002901681FD0496801F07F03816A4B
:103B80004A1C82620B70C18D491E0904090CC18553
:103B900018D02BE00269816A002A0268526805D0B9
:103BA000D2B20A80816A491C8162ECE7C2F3080242
:103BB0000A80816A891CF7E74A68816A4B1C836224
:103BC0000A70E0E70168CA6822F02002CA60016852
:103BD000CA6822F48072CA6001684A6922F0010250
:103BE0004A61202180F83A10FEF7BCFE002010BD8B
:103BF0002DE9F041044600680169E26821F4405172
:103C0000114301612169A068E269084361691143B8
:103C100008432168CA6849F20C639A430243CA60A8
:103C200020684169A26921F4407111434161E06952
:103C3000192764253226B0F5004F354A35492068EA
:103C40004FF0000806D0884201D0904236D1FDF7EF
:103C5000E9FF35E0884201D0904202D1FDF7E2FF52
:103C600001E0FDF7CFFF61684A18A0FB070148EBB0
:103C70000803FCF7A5FA0146B0FBF5F00201B1FB21
:103C8000F5F06FF01803584301EB800006EBC0001D
:103C9000B0FBF5F000F0F80002EB4002B1FBF5F0EC
:103CA000584301EB800006EBC000B0FBF5F000F0DC
:103CB0000700216810448860BDE8F081FDF7A2FF8D
:103CC00061688B0F8A00A0FB0701FCF779FA0146B7
:103CD000B0FBF5F06FF01802504301EB800006EBEB
:103CE0000010B0FBF5F000F0F002B1FBF5F002EBD4
:103CF0000012B1FBF5F06FF01803584301EB8000A0
:103D000006EB0010B0FBF5F000F00F00D1E700006B
:103D1000001401400010014090F83910212901D011
:103D2000022070478168B1F5805F016A0BD04A1CA0
:103D30000262026809785160C18C491E0904090CAD
:103D4000C1840ED017E009880268C1F308015160F0
:103D500001690029016A02D0491C0162ECE7891C53
:103D6000FBE70168CA6822F08002CA600068C16887
:103D700041F04001C160002070472DE9F0419846B4
:103D800017460E460446069D1DE0681C1BD02DB14B
:103D9000FDF7DCFAA0EB0800A84214D92068C1683E
:103DA00021F4D071C1602068416921F001014161B5
:103DB000202084F8390084F83A00002084F8380084
:103DC0000320BDE8F0812068006836EA000004D0D6
:103DD0000020B842D9D00020F3E70120F9E7FEE740
:103DE0000907090E002804DB00F1E02080F8001428
:103DF000704700F00F0000F1E02080F8141D7047BC
:103E00002DE9F0412DED020B9FED3D0B2DED028BC9
:103E10009FED3D8BDDE90254C4F30A50A0F2FF365A
:103E2000142E37DA002E18DA53EC102B9DED020B0E
:103E300051EC100BFCF746FA53EC182BFCF744FD41
:103E400057D2002CA4BF0024254652DA24F00040AB
:103E5000284318BF2E4C4CD01AE02E4820FA06F703
:103E600004EA070028431FD053EC102B9DED020BF2
:103E700051EC100BFCF726FA53EC182BFCF724FD41
:103E800037D2002C03DA4FF48010F0400444BC43D6
:103E900000252EE0332E07DCA6F114004FF0FF3191
:103EA00021FA00F73D4206D19DED020BBDEC028BDD
:103EB00002B0BDE8F08153EC102B9DED020B51ECEC
:103EC000100BFCF7A3FA53EC182BFCF7FDFC10D2F7
:103ED000002C0DDA142E08BF641C09D0C6F1340082
:103EE000012101FA00F02844A84238BF641C0546AD
:103EF000BD43CDE902549DED020BD7E70000000061
:103F00009C7500883CE4377E000000000000000043
:103F10000000F0BFFFFF0F0000B583B09FED060B60
:103F20000A4601468DED000B6846FCF706FC9DED48
:103F3000000B03B000BD0000000000000000000006
:103F400002E008C8121F08C1002AFAD17047704762
:103F5000002001E001C1121F002AFBD17047303858
:103F60000A2801D2012070470020704710B504468E
:103F70002DED028B0846FCF72DFB41EC100B53ECAA
:103F8000102B9FED1B0B51EC100BFCF7B4FA00EE5D
:103F9000104A41EC180BB8EEC00A10EE100AFCF7FC
:103FA00050FB53EC182BFCF734FA9FED131B53EC2A
:103FB000112BFCF72EFA9FED121B53EC112BFCF783
:103FC00028FAFCF751FBFCF73CFB9FED0F1B53EC71
:103FD000112BFCF71EFA9FED0E1B53EC112BFCF777
:103FE00018FAFCF741FBBDEC028B00EE100A10BD85
:103FF000000000000000F03F0000000000006940E9
:104000000000000000004E40AE0507C5A05DCF3F98
:10401000111111111111913F7047000070B5304816
:10402000DFED300A2DED088B0178407800EE101A94
:10403000B8EE400A80EE208A00EE100ADFED2A0A70
:10404000B8EE400AC0EE208A18EE900AFCF7F9FAA2
:104050009FED26BB53EC1B2BFCF7DBF9B0EE000AFF
:1040600041EC190B28EE008A18EE100AFCF7E9FA69
:1040700053EC192BFCF7C7F99FED1EAB53EC1A2B31
:10408000FCF7C7F9FCF7F0FA154C0546183C206020
:1040900018EE900AFCF7D5FA53EC1B2BFCF7B9F994
:1040A00041EC190B18EE100AFCF7CBFA53EC192B64
:1040B000FCF708F953EC1A2BFCF7ABF9FCF7D4FA30
:1040C000014660600D489FED0E0A854201DD84EDDA
:1040D000000A814201DD84ED010ABDEC088B70BD50
:1040E000180000200050C3470000C842E17A14AE17
:1040F00047E1CA3F000000000000E03F85EB513E71
:1041000085EB513E2DED048B82B00024ADF80040CC
:10411000FDF74CFCFF4E00224FF400513046FDF7F6
:104120000FF94FF48045002229463046FDF708F983
:10413000FFF7EEFAFEF7E0FEF748016841F40011E0
:1041400001600068002200F40010009011460B206E
:10415000FDF78CFC0B20FDF77BFC002211462F2085
:10416000FDF784FC2F20FDF773FCED48EB4901605F
:10417000EC49C0E90114C0E9034544618461C461AC
:104180000462FDF7E9F8FEF729FFFEF757FFFEF797
:104190009FFFFEF7CDFFFEF7FBFFE448E249016019
:1041A0004FF4E131C0E901140C21C460C0E90441BD
:1041B0008461C461FEF7D2FAD948FFF721F83020B4
:1041C000FFF7ACF84FF4FA70FCF7CCFFD84890ED4D
:1041D000000A0020B8EEC00AFFF702F9D44890EDBB
:1041E000010A0120B8EEC00AFFF7FAF8D04890EDB6
:1041F000020A0220B8EEC00AFFF7F2F8CC4890EDB0
:10420000030A0320B8EEC00AFFF7EAF8C84890EDA9
:10421000040A0420B8EEC00AFFF7E2F8C44890EDA3
:10422000050A0520B8EEC00AFFF7DAF8C048C04911
:10423000A838A83904701E204870822088705A203F
:10424000C8700846002104714471B5489430FEF7E7
:104250007DF9B34804219430FEF778F9B04808217D
:104260009430FEF773F9AE480C219430FEF76EF9E6
:10427000AF48AE49AC381D22047044704031AB48A1
:10428000FEF724FBA64804215430FEF787F8A74820
:1042900004214038FEF782F8A4480421C038FEF714
:1042A0007DF8A24804218038FEF778F8DFF880B264
:1042B0000022ABF1A00B0121DBED012A9BED022ACC
:1042C0009BED091ADBED080A9BED070A9FED998A21
:1042D0009648F0EE481A7C30FFF72EF90BF12800D3
:1042E00000F11C03D0ED012A90ED022A8F48002234
:1042F00093EC030A0121F0EE481AB830FFF71CF9DD
:104300000BF1500404F11C038848D4ED012A94ED0C
:10431000022A002293EC030A0121F0EE481AF4303D
:10432000FFF70AF904F128080022D8ED012A98EDD8
:10433000022A98ED091AD8ED080A98ED070A01211A
:10434000F0EE481A7C48FFF7F7F84FF000099FEDB0
:104350007B9A7B49086801287ED1744BC1F8009094
:10436000403B48461968496A5E4609B200EE101A99
:10437000A3F58071B8EEC00A8BED030A0A68516A92
:104380006B4F09B200EE101A783FA3F18005B8EE2A
:10439000C00A87ED030A2968496A09B200EE101ABB
:1043A000A3F14001B8EEC00A84ED030AD1F800C0C1
:1043B000DCF824C00FFA8CFC00EE10CAB8EEC00A7C
:1043C00088ED030A50621A6850622A6850620968D0
:1043D0004862532103F19D00FBF747FF48B3452195
:1043E00005F21D10FBF741FF18B3412105F21D1026
:1043F000FBF73BFF58B1202105F21D10FBF735FFFD
:104400002021FBF732FFA7F1300100F061F94748A6
:1044100042215D30FBF729FF58B1444820215D302F
:10442000FBF723FF2021FBF720FF4149AC3900F0C7
:104430004FF996ED000ABDEEC00A10EE101A96ED87
:10444000030ABDEEC00A10EE100AFFF78FFD86EDDD
:10445000060A97ED000A00E0EDE0BDEEC00A10EE9E
:10446000101A97ED030ABDEEC00A10EE100AFFF70E
:104470007DFD87ED060A94ED000ABDEEC00A10EE40
:10448000101A94ED030ABDEEC00A10EE100AFFF7F1
:104490006DFD84ED060A98ED000ABDEEC00A10EE2F
:1044A000101A98ED030ABDEEC00A10EE100AFFF7CD
:1044B0005DFD88ED060AFFF7B1FD9FED228ADFED75
:1044C000228A1A48B0EE491AF0EE480AB0EE680A9D
:1044D0007C30FFF79DF81848B0EE491AF0EE480A14
:1044E000B0EE680A7838FFF793F81348B0EE491A2F
:1044F000F1EE000AB3EE0E0A3C38FFF789F89FEDA3
:10450000131AF0EE000AB1EE0C0A0B48FFF780F820
:104510001EE0000000080240303802400054004015
:1045200014010020A086010000500040A8020020D5
:10453000C40000200AD7A33BD803002000000000DD
:10454000F80000200AD7A33C0AD7A33DA69B443B12
:104550009FED580A584DDFF864A185ED000A85EDFE
:10456000010AD6ED060A5046CAED000A8AED0D0A88
:10457000FEF798FF9AED020A96ED011AB2EE048A50
:10458000DFED4F8AC0EE010AB0EE480A00EEA80A3D
:1045900085ED020AFFF740FD97ED060A0AF13C0699
:1045A000304686ED000A95ED010A86ED0D0AFEF70C
:1045B00079FF96ED020A97ED011AC0EE010AB0EEFE
:1045C000480A00EEA80A85ED030AFFF725FD94EDE1
:1045D000060A3C36304686ED000A95ED010A86ED66
:1045E0000D0AFEF75FFF96ED020A94ED011AC0EE88
:1045F000010AB0EE480A00EEA80A85ED040AFFF7AA
:104600000BFD98ED060A3C36304686ED000A95ED26
:10461000000A86ED0D0AFEF745FF96ED020A98EDB9
:10462000011AC0EE010AB0EE480A00EEA80A85EDB4
:10463000050AFFF7F1FC204D1E21C4355A20E96020
:10464000C5E9010905F1180668614F460022716845
:10465000FFF710F8716801226868FFF70BF8B1687E
:104660000222A868FFF706F8F1680322E868FFF75E
:1046700001F8316904222869FEF7FCFFB0EE490A0F
:104680000520FEF7ADFE182229463046FBF7C9FD8E
:104690000C4D2868076400224FF400610A48FCF7BB
:1046A0004FFE2868C76300224FF400410748FCF71B
:1046B00047FE4EE63333B33F0000002024030020C2
:1046C00000606045A8010020000802400000024090
:1046D00038B50D460AA1FBF7D3FD00240DE069466D
:1046E000FFF71AFC51EC100BFBF792FF285504A1C1
:1046F0000020FBF7C5FD641CE4B20028EFD138BDF3
:104700002000000000061016000610160000000031
:104710000000000001020304060708090000000071
:1047200001020304DDDDDDDDDCBBBBDDDDDDDDDD68
:10473000DDDDDDDD988888888888888877777777D9
:1047400077888888855555566666666666666666A5
:104750006668888883333332222222222222222250
:104760002228888D844700080000002014010000E2
:10477000403F00089848000814010020C4070000CA
:10478000503F000800000000000000000000000092
:104790000000000000000000000000000000000019
:1047A00000000000000000000080BB449A99B93F5F
:1047B0009A99B9BF0000000000000000000000004E
:1047C00000000000000000000000000000000000E9
:1047D0000080BB449A99B93F9A99B9BF0000000084
:1047E00000000000000000000000000000000000C9
:1047F000000000000000000000C0C144CDCCCC3F50
:10480000CDCCCCBF00000000000000000000000084
:104810000000000000000000000000000000000098
:104820000040B044A470DD3FA470DDBF0000000074
:104830000000000000000000000000000000000078
:10484000000000000000000000000000B4000000B4
:104850005A0000003C000000320000001E00000072
:1048600000000000B40000005A0000003C000000FE
:10487000320000001E0000000000000000000000E8
:104880000100000010000000000000000024F400FF
:08489000000000000000000020
:040000050800018965
:00000001FF
